:100000000C94C5000C94E2000C94E2000C94E20005
:100010000C94E2000C94E2000C94E2000C94E200D8
:100020000C94E2000C949E010C94E2000C94DD010F
:100030000C94E2000C94E2000C94E2000C94E200B8
:100040000C94E2000C94E2000C94C6010C94E200C3
:100050000C94E2004E414E494E495459494E46CD0A
:10006000CCCC3D0AD7233C17B7D13877CC2B32956F
:1000700095E6241FB14F0A000020410000C842004D
:10008000401C4620BCBE4CCA1B0E5AAEC59D740017
:10009000407A10F35A00A0724E18090010A5D4E857
:1000A0000000E87648170000E40B54020000CA9AEA
:1000B0003B000000E1F5050000809698000000403C
:1000C000420F000000A08601000000102700000081
:1000D00000E803000000006400000000000A0000C7
:1000E0000000000100000000002C76D888DC674F7B
:1000F0000823DFC1DFAE59E1B1B796E5E3E453C6AB
:100100003AE651997696E8E6C28426EB898C9B62A2
:10011000ED407C6FFCEFBC9C9F40F2BAA56FA5F44C
:1001200090055A2AF75C936B6CF9676DC11BFCE074
:10013000E40D47FEF520E6B500D0ED902E030094C7
:100140003577050080841E080000204E0A0000005C
:10015000C80C333333330F986E12831141EF8D2166
:1001600014893BE65516CFFEE6DB18D1844B381BCD
:10017000F77C1D901DA4BBE424203284725E228192
:1001800000C9F124ECA1E53D270011241FBECFE5F5
:10019000D4E0DEBFCDBF10E0A0E6B0E0E6E9F9E1D3
:1001A00002C005900D92A238B107D9F720E0A2E86D
:1001B000B0E001C01D92AC3DB207E1F70E940E0213
:1001C0000C94C90C0C9400004F925F926F927F9236
:1001D0008F929F92AF92BF92CF92DF92EF92FF9257
:1001E0000E94B7036B017C01209182003091830053
:1001F00040918400509185000E94B8034B015C013E
:1002000060938200709383008093840090938500B4
:10021000209186003091870040918800509189009C
:10022000C701B6010E94B7032B013C01C0928600B2
:10023000D0928700E0928800F09289002DEC3CEC8F
:100240004CE45DE3C701B6010E9481056B017C01AE
:100250002CEB34E743E15CE3C501B4010E94810566
:100260009B01AC01C701B6010E94B8036B017C0180
:1002700022E631EA46ED5BE3C301B2010E9481054B
:100280009B01AC01C701B6010E94B803FF90EF903B
:10029000DF90CF90BF90AF909F908F907F906F90A6
:1002A0005F904F90089585E083BF12BE89B781604B
:1002B00089BF089512BE109296001092950008957D
:1002C0008CE785BD08951092D9001092D80013BC18
:1002D0000895BC01990F880B990B0E94CC0420E073
:1002E00030E044EC52E40E94290420E030E04AE788
:1002F00054E40E948105089510BC83E389B91BB8BA
:1003000080B5866880BD8AB188698AB908955D9B89
:10031000FECF8CB908950F931F93CF938C01C0E04B
:1003200003C00E948701CF5FF801EC0FF11D8081AF
:100330008111F7CFCF911F910F9108951F920F92C6
:100340000FB60F9211248F939F9380918E008F5F31
:1003500080938E0080918E008E3188F010928E00F6
:1003600080919500909196009093980080939700CB
:10037000109296001092950081E0809399009F91D1
:100380008F910F900FBE0F901F9018951F920F9294
:100390000FB60F9211248F939F93809195009091A7
:1003A0009600019690939600809395009F918F916F
:1003B0000F900FBE0F901F9018951F920F920FB6BF
:1003C0000F9211248F939F93EF93FF938CB1909191
:1003D0009000993078F48A3069F08D3059F0E091CE
:1003E000900091E09E0F90939000F0E0E655FF4F53
:1003F00080830BC0E0919000F0E0E655FF4F108243
:100400001092900081E080938F00FF91EF919F9177
:100410008F910F900FBE0F901F9018958AB38E7F0B
:100420008ABB1BBA81B3806881BB85E089BF0E940B
:100430005A0187B38B7F87BB88B3846088BB8BB737
:1004400080628BBF84B78F7B84BF0E947C010E9437
:1004500053017894C89B21C01092610010926000F3
:100460000E9463011092860010928700109288000B
:1004700010928900109282001092830010928400E2
:1004800010928500EAEBF0E08CE49FE49183808396
:1004900087E590E09383828309C085E0E4E6F0E09D
:1004A000AAEBB0E001900D928A95E1F78091990056
:1004B000882309F454C0109299008091970090917C
:1004C00098000E946901609391007093920080935C
:1004D0009300909394002091600030916100232B51
:1004E000C1F1C0908A00D0908B00E0908C00F09019
:1004F0008D009B01AC01C701B6010E94E4006B01B5
:100500007C0120E030E0A9010E94240488239CF0B3
:1005100020E030E04FE753E4C701B6010E947C05BC
:10052000181664F40F2EC12CD12CFFE7EF2EF3E444
:10053000FF2EF02D03C0C12CD12C7601C701B601CE
:100540000E949B04862F90E09093D9008093D8005E
:1005500063BD81E090E0909363008093620080919E
:10056000620090916300892B09F481C010926300AE
:10057000109262006091D8007091D900072E000C93
:10058000880B990B0E94CC040AE910E022E042E0BB
:100590000E94EE05C8019F930F9389E690E09F9318
:1005A0008F9384EC90E09F938F930E94210684ECBC
:1005B00090E00E948B016091910070919200809177
:1005C00093009091940022E042E00E94EE05809119
:1005D0006000909161000F900F900F900F900F901E
:1005E0000F90892BA1F0C8019F930F938DE690E0A7
:1005F0009F938F9384EC90E09F938F930E942106AA
:100600000F900F900F900F900F900F9014C08AE9E9
:1006100090E09F938F9384E790E09F938F9384EC77
:1006200090E09F938F930E9421060F900F900F9060
:100630000F900F900F9084EC90E00E948B018AEB5A
:1006400090E09F938F938CE790E09F938F9384EC3F
:1006500090E09F938F930E94210684EC90E00E948B
:100660008B010F900F900F900F900F900F90809133
:100670008F00882309F4EECE8091AA00833499F488
:100680008091AB00813339F481E090E09093610078
:10069000809360004EC0803309F04BC0109261001F
:1006A0001092600046C0863409F043C0EAEAF0E0E8
:1006B00001900020E9F73197AF014A5A504041506C
:1006C00051096BEA70E08AE990E00E9412068AE91B
:1006D00090E00E940E066B017C016093A60070936F
:1006E000A7008093A8009093A90020918A003091E0
:1006F0008B0040918C0050918D000E94240488232F
:10070000C1F0C0928A00D0928B00E0928C00F092EF
:100710008D0010928600109287001092880010922F
:10072000890010928200109283001092840010922F
:10073000850010928F008091600090916100892B5C
:1007400019F00E94600186CE0E946301109286001B
:1007500010928700109288001092890010928200F7
:1007600010928300109284001092850073CE50582E
:10077000BB27AA270E94CF030C9442050E94340590
:1007800038F00E943B0520F039F49F3F19F426F41D
:100790000C9431050EF4E095E7FB0C942B05E92F42
:1007A0000E94530558F3BA17620773078407950729
:1007B00020F079F4A6F50C9475050EF4E0950B2E57
:1007C000BA2FA02D0B01B90190010C01CA01A001A3
:1007D0001124FF27591B99F0593F50F4503E68F1FE
:1007E0001A16F040A22F232F342F4427585FF3CF3F
:1007F000469537952795A795F0405395C9F77EF410
:100800001F16BA0B620B730B840BBAF09150A1F058
:10081000FF0FBB1F661F771F881FC2F70EC0BA0FDE
:10082000621F731F841F48F4879577956795B79566
:10083000F7959E3F08F0B0CF9395880F08F0992761
:10084000EE0F9795879508950E94070508F481E0BB
:1008500008950E943D040C9442050E943B0558F007
:100860000E94340540F029F45F3F29F00C942B05D9
:1008700051110C9476050C9431050E94530568F3D0
:100880009923B1F3552391F3951B550BBB27AA2749
:1008900062177307840738F09F5F5F4F220F331F83
:1008A000441FAA1FA9F335D00E2E3AF0E0E832D04B
:1008B00091505040E695001CCAF72BD0FE2F29D04E
:1008C000660F771F881FBB1F261737074807AB0720
:1008D000B0E809F0BB0B802DBF01FF2793585F4F95
:1008E0003AF09E3F510578F00C942B050C94760558
:1008F0005F3FE4F3983ED4F3869577956795B79577
:10090000F7959F5FC9F7880F911D9695879597F981
:100910000895E1E0660F771F881FBB1F62177307FA
:100920008407BA0720F0621B730B840BBA0BEE1F0F
:1009300088F7E09508950E945B0588F09F5798F02E
:10094000B92F9927B751B0F0E1F0660F771F881FD4
:10095000991F1AF0BA95C9F714C0B13091F00E94EE
:100960007505B1E008950C947505672F782F8827D9
:10097000B85F39F0B93FCCF3869577956795B39515
:10098000D9F73EF490958095709561957F4F8F4F84
:100990009F4F0895E89409C097FB3EF49095809589
:1009A000709561957F4F8F4F9F4F9923A9F0F92F35
:1009B00096E9BB279395F695879577956795B795B3
:1009C000F111F8CFFAF4BB0F11F460FF1BC06F5F99
:1009D0007F4F8F4F9F4F16C0882311F096E911C0AB
:1009E000772321F09EE8872F762F05C0662371F0CC
:1009F00096E8862F70E060E02AF09A95660F771FE0
:100A0000881FDAF7880F9695879597F90895990FBB
:100A10000008550FAA0BE0E8FEEF16161706E807C8
:100A2000F907C0F012161306E407F50798F0621BE9
:100A3000730B840B950B39F40A2661F0232B242BBE
:100A4000252B21F408950A2609F4A140A6958FEFDD
:100A5000811D811D089597F99F6780E870E060E02F
:100A600008959FEF80EC089500240A941616170647
:100A700018060906089500240A941216130614068F
:100A800005060895092E0394000C11F4882352F0F2
:100A9000BB0F40F4BF2B11F460FF04C06F5F7F4FAA
:100AA0008F4F9F4F089557FD9058440F551F59F091
:100AB0005F3F71F04795880F97FB991F61F09F3F4B
:100AC00079F087950895121613061406551FF2CF74
:100AD0004695F1DF08C0161617061806991FF1CFC4
:100AE00086957105610508940895E894BB276627EB
:100AF0007727CB0197F908950E94070508F48FEF37
:100B000008950E9494050C9442050E94340538F023
:100B10000E943B0520F0952311F00C942B050C94BA
:100B2000310511240C9476050E94530570F3959FAE
:100B3000C1F3950F50E0551F629FF001729FBB27D4
:100B4000F00DB11D639FAA27F00DB11DAA1F649F70
:100B50006627B00DA11D661F829F2227B00DA11D23
:100B6000621F739FB00DA11D621F839FA00D611DA9
:100B7000221F749F3327A00D611D231F849F600DCA
:100B8000211D822F762F6A2F11249F5750409AF0F3
:100B9000F1F088234AF0EE0FFF1FBB1F661F771F7F
:100BA000881F91505040A9F79E3F510580F00C944A
:100BB0002B050C9476055F3FE4F3983ED4F38695BD
:100BC00077956795B795F795E7959F5FC1F7FE2BEA
:100BD000880F911D9695879597F90895EF920F9339
:100BE0001F93CF93DF93E80147FD02C034E001C0BB
:100BF00034E1042E000C550B57FF03C0519541956D
:100C00005109E32E022F242FAE010E942408CE01A9
:100C1000DF91CF911F910F91EF900895662777276D
:100C20000C947E09FB01DC014150504048F00190DA
:100C30000D920020C9F701C01D9241505040E0F7CD
:100C40000895AEE0B0E0E7E2F6E00C94910C0D8977
:100C50001E8986E08C831A8309838FEF9FE79E832A
:100C60008D83AE01475E5F4F6F89788DCE0101960F
:100C70000E944306EF81F885E00FF11F10822E9647
:100C8000E4E00C94AD0CABE0B0E0E9E4F6E00C94E9
:100C9000830C6C017B018A01FC011782168283811F
:100CA00081FFCCC1CE0101963C01F6019381F70191
:100CB00093FD859193FF81917F01882309F4BAC147
:100CC000853239F493FD859193FF81917F018532BF
:100CD00029F4B60190E00E94DB0BE7CF912C212C88
:100CE000312CFFE1F315D8F08B3279F038F48032F3
:100CF00079F08332A1F4232D20611DC08D3261F083
:100D0000803369F4232D216016C0832D8260382E34
:100D1000E32DE4603E2E2AC0F32DF8601DC037FCA1
:100D20002DC020ED280F2A3040F08E32B9F436FC69
:100D300081C1232D2064322E19C036FE06C08AE000
:100D4000989E200D1124922E11C0EAE02E9E200DB7
:100D50001124222EF32DF0623F2E08C08C3621F490
:100D6000832D8068382E02C0883641F4F70193FD48
:100D7000859193FF81917F018111B3CF982F9F7D42
:100D80009554933028F40C5F1F4F9FE399830DC057
:100D9000833631F0833771F0833509F059C021C0B3
:100DA000F801808189830E5F1F4F88248394912CE2
:100DB000530113C02801F2E04F0E511CF801A0802E
:100DC000B18036FE03C0692D70E002C06FEF7FEF87
:100DD000C5010E94D00B4C018201F32DFF773F2EFD
:100DE00016C0280122E0420E511CF801A080B180FB
:100DF00036FE03C0692D70E002C06FEF7FEFC501C2
:100E00000E94C50B4C01F32DF0683F2E820133FC8C
:100E10001BC0822D90E088169906B0F4B60180E2DE
:100E200090E00E94DB0B2A94F4CFF50137FC85910A
:100E300037FE81915F01B60190E00E94DB0B21102B
:100E40002A9421E0821A91088114910471F7E8C074
:100E5000843611F0893641F5F80137FE07C060810C
:100E60007181828193810C5F1F4F08C06081718105
:100E7000072E000C880B990B0E5F1F4FF32DFF768A
:100E80003F2E97FF09C090958095709561957F4F93
:100E90008F4F9F4FF0683F2E2AE030E0A3010E9461
:100EA000170C882E861845C0853731F4232D2F7EE8
:100EB000B22E2AE030E025C0932D997FB92E8F36CF
:100EC000C1F018F4883579F0B5C0803719F088374B
:100ED00021F0B0C0E92FE061BE2EB4FE0DC0FB2DA5
:100EE000F460BF2E09C034FE0AC0292F2660B22E3E
:100EF00006C028E030E005C020E130E002C020E17B
:100F000032E0F801B7FE07C0608171818281938170
:100F10000C5F1F4F06C06081718180E090E00E5F22
:100F20001F4FA3010E94170C882E8618FB2DFF77F8
:100F30003F2E36FE0DC0232D2E7FA22E891458F48D
:100F400034FE0BC032FC09C0832D8E7EA82E05C056
:100F5000B82CA32C03C0B82C01C0B92CA4FE0FC020
:100F6000FE01E80DF11D8081803321F49A2D997ED8
:100F7000A92E09C0A2FE06C0B394B39404C08A2D62
:100F8000867809F0B394A3FC11C0A0FE06C0B21489
:100F900088F4280C922C9B180EC0B21460F4B60191
:100FA00080E290E00E94DB0BB394F7CFB21418F408
:100FB0002B1802C0982C212CA4FE10C0B60180E38F
:100FC00090E00E94DB0BA2FE17C0A1FC03C088E7E3
:100FD00090E002C088E590E0B6010CC08A2D8678CA
:100FE00059F0A1FE02C08BE201C080E2A7FC8DE2B5
:100FF000B60190E00E94DB0B891438F4B60180E35F
:1010000090E00E94DB0B9A94F7CF8A94F301E80DED
:10101000F11D8081B60190E00E94DB0B8110F5CFBD
:10102000222009F442CEB60180E290E00E94DB0B60
:101030002A94F6CFF6018681978102C08FEF9FEF49
:101040002B96E2E10C949F0CA9E0B0E0EAE2F8E014
:101050000C94890C6A01122FB02E2BE3201720F07C
:10106000FF24F394F00E02C02CE3F22E0F2D27E0A4
:10107000AE014F5F5F4F0E94CC0ABC014981842FB3
:101080008970813031F0E1FC06C0E0FE06C090E2DC
:1010900005C09DE203C09BE201C090E05E2D50714F
:1010A00043FF3CC0911102C083E001C084E081177E
:1010B00018F4212F281B01C020E051110BC0F601AC
:1010C000822F30E2882319F031938150FBCFC20E7A
:1010D000D11C20E0992329F0D6019C93F60131968A
:1010E0006F01C6010396E2FE0AC03EE4D6013C93BE
:1010F00041E411964C93119712963C9306C03EE63C
:10110000F601308341E641833283FC01322F40E215
:10111000332309F442C041933150FACF42FF44C017
:10112000911102C083E001C084E0811718F4212FDF
:10113000281B01C020E051110BC0F601822F30E2C4
:10114000882319F031938150FBCFC20ED11C20E0CF
:10115000992329F0D6019C93F60131966F01C601BF
:101160000396E2FE0BC039E4D6013C933EE41196AF
:101170003C93119736E412963C9307C039E6F6018A
:1011800030833EE6318336E63283FC01322F40E283
:10119000332319F041933150FBCFFC01E20FF11DD5
:1011A00010828EEF9FEFA6C021E030E0911102C0C7
:1011B00020E030E0161617061CF4FB01319602C041
:1011C000E1E0F0E02E0F3F1FBB2021F0EB2DF0E01F
:1011D000319602C0E0E0F0E02E0F3F1FE12FF0E07B
:1011E0002E173F071CF4121B212F01C020E08E2D6B
:1011F000887159F4F601822F30E2882319F0319377
:101200008150FBCFC20ED11C20E0992329F0D601DA
:101210009C93F60131966F0151110BC0F601822F9C
:1012200090E3882319F091938150FBCFC20ED11C1B
:1012300020E00F2D060F9A81342F307144FF03C038
:10124000913309F40150101624F4093018F008E025
:1012500001C001E0AB0177FF02C040E050E0FB01BC
:10126000E41BF50BA1E0B0E0AC0FBD1FEA0FFB1FC4
:101270008EE2A82E4B01801A91080B2D10E01195DB
:10128000019511094F3FBFEF5B0721F4D601AC92E6
:1012900011966D01641775072CF08416950614F4E9
:1012A000818101C080E3415051093196D6011196E8
:1012B0007D014017510724F0D6018C936701E2CFDE
:1012C0006417750739F4963320F4953319F4311106
:1012D00001C081E3F6018083F701822F90E2882329
:1012E00019F091938150FBCFF701E20FF11D1082AD
:1012F00080E090E02996ECE00C94A50CA0E0B0E032
:10130000E4E8F9E00C94890CEC016B0161157105BE
:1013100019F0FB01918380837E01FFEFEF1AFF0A32
:101320000881802F90E00E94A40B892B11F0E70127
:10133000F3CF0D3239F47E0182E0E80EF11C098111
:1013400011E008C00B3229F47E0192E0E90EF11C95
:10135000098110E0E701219743E050E06CE570E07F
:10136000CE010E94AD0B892BC1F4239645E050E0DD
:1013700067E570E0CE010E94AD0B892B09F425963C
:10138000C114D10419F0F601D183C0831111F6C044
:1013900060E070E080E89FE7FAC043E050E064E579
:1013A00070E0CE010E94AD0B892B59F4C114D10419
:1013B00009F4E9C0F2E0EF0EF11CF601F182E082DF
:1013C000E2C020E030E0A901C0E0D0E0F70180ED0C
:1013D000A82EA00E89E08A1530F1912F9260B92EC7
:1013E000812F887012FF04C0811124C0219622C071
:1013F00081112197A5E0B0E00E94780CDC01CB01BF
:10140000880F991FAA1FBB1F9C01AD012A0D311D1A
:10141000411D511D283989E93807480789E15807D6
:1014200048F0166006C09EEFA9120AC013FD40C026
:101430001860B12E8FEFE81AF80A00811B2DC6CF75
:10144000802F8F7D8534A1F580818D3211F410615C
:1014500006C08B3221F0319661E070E004C08181DA
:10146000329662E070E080538A3018F0E61BF70B8A
:101470001FC060E070E060389CE079075CF4DB013D
:10148000AA0FBB1FAA0FBB1F6A0F7B1F660F771F18
:10149000680F711D3196DF0111978C9180538A304E
:1014A00050F314FF03C0719561957109C60FD71FE2
:1014B00011FF08C0C114D10429F0CF010197F60132
:1014C00091838083CA01B9010E94CA04212F23702D
:1014D000233019F04B015C0106C04B015C01B7FAE7
:1014E000B094B7F8B09420E030E0A901C501B40190
:1014F0000E942404882309F43EC0D7FF06C0D1957A
:10150000C195D10903E710E002C00BE810E06801C3
:10151000F8E1CF1AD10890E2E92EF12CCE15DF05C3
:1015200074F0F8012591359145915491C501B401AC
:101530000E9481054B015C01CE19DF09EFCF0450F9
:101540001109F594E7940C151D0541F78A2D880FB4
:101550008B2D881F8F3F49F020E030E0A901C501A5
:10156000B4010E942404811106C082E290E09093AD
:10157000DB008093DA00C501B40109C060E070E0CF
:1015800080E89FEF04C060E070E080EC9FE7CDB79B
:10159000DEB7ECE00C94A50C283008F027E03327E8
:1015A000DA01990F311D87FD916000966105710583
:1015B00039F432602E5F3D9330E32A95E1F70895C8
:1015C0009F3F30F080387105610509F03C5F3C5F5A
:1015D0003D93913008F08068911DDF93CF931F9366
:1015E0000F93FF92EF92192F987F9695E92F96957A
:1015F0009695E90FFF27E751FF4F99273327EE24F0
:10160000FF24A701E70105900894079428F4360FFA
:10161000E71EF81E491F511D660F771F881F991F6F
:101620000694A1F70590079428F4E70EF81E491FC9
:10163000561FC11D770F881F991F661F0694A1F7BB
:101640000590079428F4F80E491F561FC71FD11D97
:10165000880F991F661F771F0694A1F705900794BE
:1016600020F4490F561FC71FD81F990F661F771FF9
:10167000881F0694A9F784911095177041F0D695AC
:10168000C79557954795F794E7941A95C1F7EFE8F2
:10169000F0E06894159015913591659195910590BC
:1016A0007FE27395E118F10A430B560BC90BD00981
:1016B000C0F7E10CF11E431F561FC91FD01D7EF459
:1016C000703311F48A95E6CFE894015030F0080F9A
:1016D0000AF40027021708F4202F2395022F7A33EB
:1016E00028F079E37D932A95E9F710C07D932A9538
:1016F00089F6069497956795379517951794E1188D
:10170000F10A430B560BC90BD00998F023957E9133
:1017100073957A3308F070E37C932013B8F77E91C9
:1017200070617D9330F0839571E37D9370E32A952A
:10173000E1F71124EF90FF900F911F91CF91DF916E
:10174000992787FD9095089591110C94750C80321E
:1017500019F089508550C8F70895FB01DC0141500C
:10176000504088F08D9181341CF08B350CF4805EF4
:10177000659161341CF06B350CF4605E861B611161
:1017800071F3990B0895881BFCCFFC010590615003
:1017900070400110D8F7809590958E0F9F1F089587
:1017A000FC016150704001900110D8F78095909530
:1017B0008E0F9F1F08950F931F93CF93DF93FB010D
:1017C000238121FD03C08FEF9FEF2CC022FF16C0A5
:1017D00046815781248135814217530744F4A08103
:1017E000B1819D012F5F3F4F318320838C932681F0
:1017F00037812F5F3F4F3783268314C08B01EC0165
:10180000FB010084F185E02D0995892BE1F6D801D3
:1018100016968D919C911797019617969C938E938F
:101820001697CE01DF91CF911F910F910895FA0184
:10183000AA27283051F1203181F1E8946F936E7F0F
:101840006E5F7F4F8F4F9F4FAF4FB1E03ED0B4E000
:101850003CD0670F781F891F9A1FA11D680F791F41
:101860008A1F911DA11D6A0F711D811D911DA11D52
:1018700020D009F468943F912AE0269F1124301962
:10188000305D3193DEF6CF010895462F4770405DFD
:101890004193B3E00FD0C9F7F6CF462F4F70405DAC
:1018A0004A3318F0495D31FD4052419302D0A9F707
:1018B000EACFB4E0A6959795879577956795BA9501
:1018C000C9F700976105710508959B01AC010A2EC7
:1018D00006945795479537952795BA95C9F7620F9E
:1018E000731F841F951FA01D0895992788270895A9
:1018F0000E94BA0CA59F900DB49F900DA49F800DDF
:10190000911D112408952F923F924F925F926F92F2
:101910007F928F929F92AF92BF92CF92DF92EF927F
:10192000FF920F931F93CF93DF93CDB7DEB7CA1B00
:10193000DB0B0FB6F894DEBF0FBECDBF09942A882B
:10194000398848885F846E847D848C849B84AA84D3
:10195000B984C884DF80EE80FD800C811B81AA8160
:10196000B981CE0FD11D0FB6F894DEBF0FBECDBF2B
:10197000ED010895A29FB001B39FC001A39F700D18
:10198000811D1124911DB29F700D811D1124911D87
:061990000895F894FFCF5A
:1019960001000100484947480025737C0025737CF7
:1019A6004F4E7C0025737C4F46467C0025730D0AFE
:0219B60000002F
:00000001FF
