S012000050756D7053797374656D2E73726563EB
S11300000C94C5000C94E2000C94E2000C94E20001
S11300100C94E2000C94E2000C94E2000C94E200D4
S11300200C94E2000C949E010C94E2000C94DD010B
S11300300C94E2000C94E2000C94E2000C94E200B4
S11300400C94E2000C94E2000C94C6010C94E200BF
S11300500C94E2004E414E494E495459494E46CD06
S1130060CCCC3D0AD7233C17B7D13877CC2B32956B
S113007095E6241FB14F0A000020410000C8420049
S1130080401C4620BCBE4CCA1B0E5AAEC59D740013
S1130090407A10F35A00A0724E18090010A5D4E853
S11300A00000E87648170000E40B54020000CA9AE6
S11300B03B000000E1F50500008096980000004038
S11300C0420F000000A0860100000010270000007D
S11300D000E803000000006400000000000A0000C3
S11300E00000000100000000002C76D888DC674F77
S11300F00823DFC1DFAE59E1B1B796E5E3E453C6A7
S11301003AE651997696E8E6C28426EB898C9B629E
S1130110ED407C6FFCEFBC9C9F40F2BAA56FA5F448
S113012090055A2AF75C936B6CF9676DC11BFCE070
S1130130E40D47FEF520E6B500D0ED902E030094C3
S11301403577050080841E080000204E0A00000058
S1130150C80C333333330F986E12831141EF8D2162
S113016014893BE65516CFFEE6DB18D1844B381BC9
S1130170F77C1D901DA4BBE424203284725E22818E
S113018000C9F124ECA1E53D270011241FBECFE5F1
S1130190D4E0DEBFCDBF10E0A0E6B0E0E6E0F9E1D8
S11301A002C005900D92AA37B107D9F720E0AAE75B
S11301B0B0E001C01D92AA3CB207E1F70E940E0212
S11301C00C94810C0C9400004F925F926F927F927A
S11301D08F929F92AF92BF92CF92DF92EF92FF9253
S11301E00E946F036B017C0120917A0030917B00A7
S11301F040917C0050917D000E9470034B015C0192
S113020060937A0070937B0080937C0090937D00D0
S113021020917E0030917F004091800050918100B8
S1130220C701B6010E946F032B013C01C0927E00FE
S1130230D0927F00E0928000F09281002DEC3CECA3
S11302404CE45DE3C701B6010E9439056B017C01F2
S11302502FE632E143E05CE3C501B4010E943905B5
S11302609B01AC01C701B6010E9470036B017C01C4
S113027022E631EA46ED5BE3C301B2010E9439058F
S11302809B01AC01C701B6010E947003FF90EF907F
S1130290DF90CF90BF90AF909F908F907F906F90A2
S11302A05F904F90089585E083BF12BE89B7816047
S11302B089BF089512BE10928E0010928D00089589
S11302C08CE785BD08951092C7001092C60013BC38
S11302D00895BC01990F880B990B0E94840420E0B7
S11302E030E044EC52E40E94E10320E030E04AE7CD
S11302F054E40E943905089510BC83E389B91BB8FE
S113030080B5866880BD8AB188698AB908955D9B85
S1130310FECF8CB908950F931F93CF938C01C0E047
S113032003C00E948701CF5FF801EC0FF11D8081AB
S11303308111F7CFCF911F910F9108951F920F92C2
S11303400FB60F9211248F939F93809186008F5F35
S113035080938600809186008E3188F0109286000A
S113036080918D0090918E009093900080938F00E7
S113037010928E0010928D0081E0809391009F91E5
S11303808F910F900FBE0F901F9018951F920F9290
S11303900FB60F9211248F939F9380918D009091AB
S11303A08E00019690938E0080938D009F918F9183
S11303B00F900FBE0F901F9018951F920F920FB6BB
S11303C00F9211248F939F93EF93FF938CB190918D
S11303D08800993078F48A3069F08D3059F0E091D2
S11303E0880091E09E0F90938800F0E0EE55FF4F57
S11303F080830BC0E0918800F0E0EE55FF4F10823F
S11304001092880081E080938700FF91EF919F9183
S11304108F910F900FBE0F901F90189581B3806835
S113042081BB85E089BF0E945A0187B38B7F87BB5C
S113043088B3846088BB8BB780628BBF84B78F7BA3
S113044084BF0E947C010E945301789480919100A2
S1130450882309F454C01092910080918F009091E8
S113046090000E9469016093890070938A008093D0
S11304708B0090938C002091600030916100232BBD
S1130480C1F1C0908200D0908300E0908400F0908D
S113049085009B01AC01C701B6010E94E4006B0119
S11304A07C0120E030E0A9010E94DC0388239CF059
S11304B020E030E04FE753E4C701B6010E94340561
S11304C0181664F40F2EC12CD12CFFE7EF2EF3E4A1
S11304D0FF2EF02D03C0C12CD12C7601C701B6012B
S11304E00E945304862F90E09093C7008093C60027
S11304F063BD81E090E090936300809362008091FB
S1130500620090916300892B09F469C01092630022
S1130510109262006091C6007091C700072E000C13
S1130520880B990B0E94840402E910E022E042E067
S11305300E94A605C8019F930F9384E690E09F93C1
S11305408F9382EB90E09F938F930E94D90582EB67
S113055090E00E948B016091890070918A008091E3
S11305608B0090918C0022E042E00E94A6058091CD
S11305706000909161000F900F900F900F900F907A
S11305800F90892BA1F0C8019F930F9388E690E008
S11305909F938F9382EB90E09F938F930E94D90552
S11305A00F900F900F900F900F900F9014C082E94E
S11305B090E09F938F9380E790E09F938F9382EBDB
S11305C090E09F938F930E94D9050F900F900F9006
S11305D00F900F900F9082EB90E00E948B0180911E
S11305E08700882309F432CF8091A200833499F4E0
S11305F08091A300813339F481E090E0909361000D
S1130600809360004EC0803309F04BC010926100AB
S11306101092600046C0863409F043C0E2EAF0E07C
S113062001900020E9F73197AF01425A5040415000
S1130630510963EA70E082E990E00E94CA0582E908
S113064090E00E94C6056B017C0160939E0070934C
S11306509F008093A0009093A1002091820030918C
S1130660830040918400509185000E94DC0388231C
S1130670C1F0C0928200D0928300E0928400F09294
S1130680850010927E0010927F00109280001092DC
S1130690810010927A0010927B0010927C001092DC
S11306A07D00109287008091600090916100892BF9
S11306B019F00E946001CACE0E94630110927E006C
S11306C010927F00109280001092810010927A00A4
S11306D010927B0010927C0010927D00B7CE50588F
S11306E0BB27AA270E9487030C94FA040E94EC04F7
S11306F038F00E94F30420F039F49F3F19F426F4F3
S11307000C94E9040EF4E095E7FB0C94E304E92F60
S11307100E940B0558F3BA176207730784079507FD
S113072020F079F4A6F50C942D050EF4E0950B2E2B
S1130730BA2FA02D0B01B90190010C01CA01A0012F
S11307401124FF27591B99F0593F50F4503E68F18A
S11307501A16F040A22F232F342F4427585FF3CFCB
S1130760469537952795A795F0405395C9F77EF49C
S11307701F16BA0B620B730B840BBAF09150A1F0E5
S1130780FF0FBB1F661F771F881FC2F70EC0BA0F6B
S1130790621F731F841F48F4879577956795B795F3
S11307A0F7959E3F08F0B0CF9395880F08F09927EE
S11307B0EE0F9795879508950E94BF0408F481E091
S11307C008950E94F5030C94FA040E94F30458F06F
S11307D00E94EC0440F029F45F3F29F00C94E304F8
S11307E051110C942E050C94E9040E940B0568F336
S11307F09923B1F3552391F3951B550BBB27AA27D6
S113080062177307840738F09F5F5F4F220F331F0F
S1130810441FAA1FA9F335D00E2E3AF0E0E832D0D7
S113082091505040E695001CCAF72BD0FE2F29D0DA
S1130830660F771F881FBB1F261737074807AB07AC
S1130840B0E809F0BB0B802DBF01FF2793585F4F21
S11308503AF09E3F510578F00C94E3040C942E0575
S11308605F3FE4F3983ED4F3869577956795B79503
S1130870F7959F5FC9F7880F911D9695879597F90E
S11308800895E1E0660F771F881FBB1F6217730787
S11308908407BA0720F0621B730B840BBA0BEE1F9C
S11308A088F7E09508950E94130588F09F5798F003
S11308B0B92F9927B751B0F0E1F0660F771F881F61
S11308C0991F1AF0BA95C9F714C0B13091F00E947B
S11308D02D05B1E008950C942D05672F782F8827F6
S11308E0B85F39F0B93FCCF3869577956795B395A2
S11308F0D9F73EF490958095709561957F4F8F4F11
S11309009F4F0895E89409C097FB3EF49095809515
S1130910709561957F4F8F4F9F4F9923A9F0F92FC1
S113092096E9BB279395F695879577956795B7953F
S1130930F111F8CFFAF4BB0F11F460FF1BC06F5F25
S11309407F4F8F4F9F4F16C0882311F096E911C037
S1130950772321F09EE8872F762F05C0662371F058
S113096096E8862F70E060E02AF09A95660F771F6C
S1130970881FDAF7880F9695879597F90895990F48
S11309800008550FAA0BE0E8FEEF16161706E80755
S1130990F907C0F012161306E407F50798F0621B76
S11309A0730B840B950B39F40A2661F0232B242B4B
S11309B0252B21F408950A2609F4A140A6958FEF6A
S11309C0811D811D089597F99F6780E870E060E0BC
S11309D008959FEF80EC089500240A9416161706D4
S11309E018060906089500240A941216130614061C
S11309F005060895092E0394000C11F4882352F07F
S1130A00BB0F40F4BF2B11F460FF04C06F5F7F4F36
S1130A108F4F9F4F089557FD9058440F551F59F01D
S1130A205F3F71F04795880F97FB991F61F09F3FD7
S1130A3079F087950895121613061406551FF2CF00
S1130A404695F1DF08C0161617061806991FF1CF50
S1130A5086957105610508940895E894BB27662777
S1130A607727CB0197F908950E94BF0408F48FEF0C
S1130A7008950E944C050C94FA040E94EC0438F08A
S1130A800E94F30420F0952311F00C94E3040C94D9
S1130A90E90411240C942E050E940B0570F3959F14
S1130AA0C1F3950F50E0551F629FF001729FBB2761
S1130AB0F00DB11D639FAA27F00DB11DAA1F649FFD
S1130AC06627B00DA11D661F829F2227B00DA11DB0
S1130AD0621F739FB00DA11D621F839FA00D611D36
S1130AE0221F749F3327A00D611D231F849F600D57
S1130AF0211D822F762F6A2F11249F5750409AF080
S1130B00F1F088234AF0EE0FFF1FBB1F661F771F0B
S1130B10881F91505040A9F79E3F510580F00C94D6
S1130B20E3040C942E055F3FE4F3983ED4F38695DA
S1130B3077956795B795F795E7959F5FC1F7FE2B76
S1130B40880F911D9695879597F90895EF920F93C5
S1130B501F93CF93DF93E80147FD02C034E001C047
S1130B6034E1042E000C550B57FF03C051954195F9
S1130B705109E32E022F242FAE010E94DC07CE017F
S1130B80DF91CF911F910F91EF90089566277727FA
S1130B900C943609FB01DC014150504048F00190AF
S1130BA00D920020C9F701C01D9241505040E0F75A
S1130BB00895AEE0B0E0EFEDF5E00C94490C0D893A
S1130BC01E8986E08C831A8309838FEF9FE79E83B7
S1130BD08D83AE01475E5F4F6F89788DCE0101969C
S1130BE00E94FB05EF81F885E00FF11F10822E961D
S1130BF0E4E00C94650CABE0B0E0E1E0F6E00C94CA
S1130C003B0C6C017B018A01FC01178216828381F3
S1130C1081FFCCC1CE0101963C01F6019381F7011D
S1130C2093FD859193FF81917F01882309F4BAC1D3
S1130C30853239F493FD859193FF81917F0185324B
S1130C4029F4B60190E00E94930BE7CF912C212C5C
S1130C50312CFFE1F315D8F08B3279F038F480327F
S1130C6079F08332A1F4232D20611DC08D3261F00F
S1130C70803369F4232D216016C0832D8260382EC1
S1130C80E32DE4603E2E2AC0F32DF8601DC037FC2E
S1130C902DC020ED280F2A3040F08E32B9F436FCF6
S1130CA081C1232D2064322E19C036FE06C08AE08D
S1130CB0989E200D1124922E11C0EAE02E9E200D44
S1130CC01124222EF32DF0623F2E08C08C3621F41D
S1130CD0832D8068382E02C0883641F4F70193FDD5
S1130CE0859193FF81917F018111B3CF982F9F7DCF
S1130CF09554933028F40C5F1F4F9FE399830DC0E4
S1130D00833631F0833771F0833509F059C021C03F
S1130D10F801808189830E5F1F4F88248394912C6E
S1130D20530113C02801F2E04F0E511CF801A080BA
S1130D30B18036FE03C0692D70E002C06FEF7FEF13
S1130D40C5010E94880B4C018201F32DFF773F2ED1
S1130D5016C0280122E0420E511CF801A080B18087
S1130D6036FE03C0692D70E002C06FEF7FEFC5014E
S1130D700E947D0B4C01F32DF0683F2E820133FC61
S1130D801BC0822D90E088169906B0F4B60180E26B
S1130D9090E00E94930B2A94F4CFF50137FC8591DF
S1130DA037FE81915F01B60190E00E94930B211000
S1130DB02A9421E0821A91088114910471F7E8C001
S1130DC0843611F0893641F5F80137FE07C0608199
S1130DD07181828193810C5F1F4F08C06081718192
S1130DE0072E000C880B990B0E5F1F4FF32DFF7617
S1130DF03F2E97FF09C090958095709561957F4F20
S1130E008F4F9F4FF0683F2E2AE030E0A3010E94ED
S1130E10CF0B882E861845C0853731F4232D2F7EBD
S1130E20B22E2AE030E025C0932D997FB92E8F365B
S1130E30C1F018F4883579F0B5C0803719F08837D7
S1130E4021F0B0C0E92FE061BE2EB4FE0DC0FB2D31
S1130E50F460BF2E09C034FE0AC0292F2660B22ECA
S1130E6006C028E030E005C020E130E002C020E107
S1130E7032E0F801B7FE07C06081718182819381FD
S1130E800C5F1F4F06C06081718180E090E00E5FAF
S1130E901F4FA3010E94CF0B882E8618FB2DFF77CE
S1130EA03F2E36FE0DC0232D2E7FA22E891458F41A
S1130EB034FE0BC032FC09C0832D8E7EA82E05C0E3
S1130EC0B82CA32C03C0B82C01C0B92CA4FE0FC0AD
S1130ED0FE01E80DF11D8081803321F49A2D997E65
S1130EE0A92E09C0A2FE06C0B394B39404C08A2DEF
S1130EF0867809F0B394A3FC11C0A0FE06C0B21416
S1130F0088F4280C922C9B180EC0B21460F4B6011D
S1130F1080E290E00E94930BB394F7CFB21418F4DC
S1130F202B1802C0982C212CA4FE10C0B60180E31B
S1130F3090E00E94930BA2FE17C0A1FC03C088E7B7
S1130F4090E002C088E590E0B6010CC08A2D867856
S1130F5059F0A1FE02C08BE201C080E2A7FC8DE241
S1130F60B60190E00E94930B891438F4B60180E333
S1130F7090E00E94930B9A94F7CF8A94F301E80DC2
S1130F80F11D8081B60190E00E94930B8110F5CF92
S1130F90222009F442CEB60180E290E00E94930B35
S1130FA02A94F6CFF6018681978102C08FEF9FEFD6
S1130FB02B96E2E10C94570CA9E0B0E0E2EEF7E0E6
S1130FC00C94410C6A01122FB02E2BE3201720F051
S1130FD0FF24F394F00E02C02CE3F22E0F2D27E031
S1130FE0AE014F5F5F4F0E94840ABC014981842F88
S1130FF08970813031F0E1FC06C0E0FE06C090E269
S113100005C09DE203C09BE201C090E05E2D5071DB
S113101043FF3CC0911102C083E001C084E081170A
S113102018F4212F281B01C020E051110BC0F60138
S1131030822F30E2882319F031938150FBCFC20E06
S1131040D11C20E0992329F0D6019C93F601319616
S11310506F01C6010396E2FE0AC03EE4D6013C934A
S113106041E411964C93119712963C9306C03EE6C8
S1131070F601308341E641833283FC01322F40E2A2
S1131080332309F442C041933150FACF42FF44C0A4
S1131090911102C083E001C084E0811718F4212F6C
S11310A0281B01C020E051110BC0F601822F30E251
S11310B0882319F031938150FBCFC20ED11C20E05C
S11310C0992329F0D6019C93F60131966F01C6014C
S11310D00396E2FE0BC039E4D6013C933EE411963C
S11310E03C93119736E412963C9307C039E6F60117
S11310F030833EE6318336E63283FC01322F40E210
S1131100332319F041933150FBCFFC01E20FF11D61
S113111010828EEF9FEFA6C021E030E0911102C053
S113112020E030E0161617061CF4FB01319602C0CD
S1131130E1E0F0E02E0F3F1FBB2021F0EB2DF0E0AB
S1131140319602C0E0E0F0E02E0F3F1FE12FF0E007
S11311502E173F071CF4121B212F01C020E08E2DF7
S1131160887159F4F601822F30E2882319F0319303
S11311708150FBCFC20ED11C20E0992329F0D60167
S11311809C93F60131966F0151110BC0F601822F29
S113119090E3882319F091938150FBCFC20ED11CA8
S11311A020E00F2D060F9A81342F307144FF03C0C5
S11311B0913309F40150101624F4093018F008E0B2
S11311C001C001E0AB0177FF02C040E050E0FB0149
S11311D0E41BF50BA1E0B0E0AC0FBD1FEA0FFB1F51
S11311E08EE2A82E4B01801A91080B2D10E0119568
S11311F0019511094F3FBFEF5B0721F4D601AC9273
S113120011966D01641775072CF08416950614F475
S1131210818101C080E3415051093196D601119674
S11312207D014017510724F0D6018C936701E2CF6A
S11312306417750739F4963320F4953319F4311192
S113124001C081E3F6018083F701822F90E28823B5
S113125019F091938150FBCFF701E20FF11D108239
S113126080E090E02996ECE00C945D0CA0E0B0E006
S1131270ECE3F9E00C94410CEC016B016115710590
S113128019F0FB01918380837E01FFEFEF1AFF0ABF
S11312900881802F90E00E945C0B892B11F0E701FC
S11312A0F3CF0D3239F47E0182E0E80EF11C09819E
S11312B011E008C00B3229F47E0192E0E90EF11C22
S11312C0098110E0E701219743E050E06CE570E00C
S11312D0CE010E94650B892BC1F4239645E050E0B2
S11312E067E570E0CE010E94650B892B09F4259611
S11312F0C114D10419F0F601D183C0831111F6C0D1
S113130060E070E080E89FE7FAC043E050E064E505
S113131070E0CE010E94650B892B59F4C114D104ED
S113132009F4E9C0F2E0EF0EF11CF601F182E0826B
S1131330E2C020E030E0A901C0E0D0E0F70180ED98
S1131340A82EA00E89E08A1530F1912F9260B92E53
S1131350812F887012FF04C0811124C0219622C0FD
S113136081112197A5E0B0E00E94300CDC01CB0193
S1131370880F991FAA1FBB1F9C01AD012A0D311DA7
S1131380411D511D283989E93807480789E1580763
S113139048F0166006C09EEFA9120AC013FD40C0B3
S11313A01860B12E8FEFE81AF80A00811B2DC6CF02
S11313B0802F8F7D8534A1F580818D3211F41061E9
S11313C006C08B3221F0319661E070E004C0818167
S11313D0329662E070E080538A3018F0E61BF70B17
S11313E01FC060E070E060389CE079075CF4DB01CA
S11313F0AA0FBB1FAA0FBB1F6A0F7B1F660F771FA5
S1131400680F711D3196DF0111978C9180538A30DA
S113141050F314FF03C0719561957109C60FD71F6E
S113142011FF08C0C114D10429F0CF010197F601BE
S113143091838083CA01B9010E948204212F237001
S1131440233019F04B015C0106C04B015C01B7FA73
S1131450B094B7F8B09420E030E0A901C501B4011C
S11314600E94DC03882309F43EC0D7FF06C0D1954F
S1131470C195D10903E710E002C00BE810E0680150
S1131480F8E1CF1AD10890E2E92EF12CCE15DF0550
S113149074F0F8012591359145915491C501B40139
S11314A00E9439054B015C01CE19DF09EFCF0450CE
S11314B01109F594E7940C151D0541F78A2D880F41
S11314C08B2D881F8F3F49F020E030E0A901C50132
S11314D0B4010E94DC03811106C082E290E0909383
S11314E0C9008093C800C501B40109C060E070E080
S11314F080E89FEF04C060E070E080EC9FE7CDB728
S1131500DEB7ECE00C945D0C283008F027E03327BC
S1131510DA01990F311D87FD91600096610571050F
S113152039F432602E5F3D9330E32A95E1F7089554
S11315309F3F30F080387105610509F03C5F3C5FE6
S11315403D93913008F08068911DDF93CF931F93F2
S11315500F93FF92EF92192F987F9695E92F969506
S11315609695E90FFF27E751FF4F99273327EE247C
S1131570FF24A701E70105900894079428F4360F87
S1131580E71EF81E491F511D660F771F881F991FFC
S11315900694A1F70590079428F4E70EF81E491F56
S11315A0561FC11D770F881F991F661F0694A1F748
S11315B00590079428F4F80E491F561FC71FD11D24
S11315C0880F991F661F771F0694A1F7059007944B
S11315D020F4490F561FC71FD81F990F661F771F86
S11315E0881F0694A9F784911095177041F0D69539
S11315F0C79557954795F794E7941A95C1F7EFE87F
S1131600F0E0689415901591359165919591059048
S11316107FE27395E118F10A430B560BC90BD0090D
S1131620C0F7E10CF11E431F561FC91FD01D7EF4E5
S1131630703311F48A95E6CFE894015030F0080F26
S11316400AF40027021708F4202F2395022F7A3377
S113165028F079E37D932A95E9F710C07D932A95C4
S113166089F6069497956795379517951794E11819
S1131670F10A430B560BC90BD00998F023957E91C0
S113168073957A3308F070E37C932013B8F77E9156
S113169070617D9330F0839571E37D9370E32A95B7
S11316A0E1F71124EF90FF900F911F91CF91DF91FB
S11316B0992787FD9095089591110C942D0C8032F3
S11316C019F089508550C8F70895FB01DC01415099
S11316D0504088F08D9181341CF08B350CF4805E81
S11316E0659161341CF06B350CF4605E861B6111EE
S11316F071F3990B0895881BFCCFFC010590615090
S113170070400110D8F7809590958E0F9F1F089513
S1131710FC016150704001900110D8F780959095BC
S11317208E0F9F1F08950F931F93CF93DF93FB0199
S1131730238121FD03C08FEF9FEF2CC022FF16C031
S113174046815781248135814217530744F4A0818F
S1131750B1819D012F5F3F4F318320838C9326817C
S113176037812F5F3F4F3783268314C08B01EC01F1
S1131770FB010084F185E02D0995892BE1F6D80160
S113178016968D919C911797019617969C938E931C
S11317901697CE01DF91CF911F910F910895FA0111
S11317A0AA27283051F1203181F1E8946F936E7F9C
S11317B06E5F7F4F8F4F9F4FAF4FB1E03ED0B4E08D
S11317C03CD0670F781F891F9A1FA11D680F791FCE
S11317D08A1F911DA11D6A0F711D811D911DA11DDF
S11317E020D009F468943F912AE0269F11243019EF
S11317F0305D3193DEF6CF010895462F4770405D8A
S11318004193B3E00FD0C9F7F6CF462F4F70405D38
S11318104A3318F0495D31FD4052419302D0A9F793
S1131820EACFB4E0A6959795879577956795BA958D
S1131830C9F700976105710508959B01AC010A2E53
S113184006945795479537952795BA95C9F7620F2A
S1131850731F841F951FA01D089599278827089535
S11318600E94720CA59F900DB49F900DA49F800DB3
S1131870911D112408952F923F924F925F926F927F
S11318807F928F929F92AF92BF92CF92DF92EF920C
S1131890FF920F931F93CF93DF93CDB7DEB7CA1B8D
S11318A0DB0B0FB6F894DEBF0FBECDBF09942A88B8
S11318B0398848885F846E847D848C849B84AA8460
S11318C0B984C884DF80EE80FD800C811B81AA81ED
S11318D0B981CE0FD11D0FB6F894DEBF0FBECDBFB8
S11318E0ED010895A29FB001B39FC001A39F700DA5
S11318F0811D1124911DB29F700D811D1124911D14
S10919000895F894FFCFE6
S11319060100010025737C0025737C4F4E0D0A00EF
S10D191625737C4F46460D0A0000BD
S9030000FC
